:1000000029C042C041C067C59FC438C5DDC409C509
:100010006EC41AC439C08CC637C054C635C034C08B
:1000200033C032C031C00000010008002000400091
:1000300080000001000400000100080040000001F1
:100040000004303132333435363738394142434495
:100050004546000011241FBECFE5D4E0DEBFCDBF72
:1000600010E0A0E6B0E0E8EFF7E102C005900D92E5
:10007000A637B107D9F711E0A6E7B0E001C01D929D
:10008000AE37B107E1F71FC2BBCF8FE187BBC09A84
:1000900014BA83E080931A0186E080931B018CE000
:1000A00080931C0189E080931D0188E290E0A0E02C
:1000B000B0E08093130190931401A0931501B093C5
:1000C000160163D560E076E980E090E031D587EEF7
:1000D00095E000D759D285E034D284E690E091D201
:1000E00087E89EE6D6DA089583B3992724E09695AB
:1000F00087952A95E1F79C012170307080FF03C03D
:100100008FEF90E00895C90108950895C398C298AB
:10011000C198C498089599278130910581F0823063
:1001200091051CF4892B39F018C08230910561F0DB
:10013000039779F012C0C498C198C29A0DC0C498B0
:10014000C398C19AC29A09C0C398C298C19AC49A66
:1001500004C0C198C298C49AC39A80911901992782
:1001600050D2089580917B00815080937B008370F2
:10017000D2DF8091130190911401A0911501B091EB
:1001800016010197A109B1098093130190931401FD
:10019000A0931501B0931601089580917B008F5FA5
:1001A00080937B008370B7DF8091130190911401DD
:1001B000A0911501B09116010196A11DB11D80936A
:1001C000130190931401A0931501B09316010895A3
:1001D00084E180931901C1D980E090E093D90CC0EB
:1001E00083E0C4D9AAD98C3810F4D7DF05C0813F89
:1001F00010F0B8DF01C08ADF77DF882389F3089524
:10020000CF93882321F0C82FC8DFC150E9F7CF91E1
:100210000895CF93882321F0C82FA4DFC150E9F7B8
:10022000CF91089583B3992796958795969587954D
:100230009C012170307080FF03C08FEF90E0089523
:10024000C901089508958091130190911401A0911E
:100250001501B09116018897A105B1056CF084E6EF
:10026000809319019ADF84E18093190101C095DF21
:10027000D9DF8823E1F30CC084E68093190172DF93
:1002800084E18093190101C06DDFCCDF8823E1F3A5
:1002900088E290E0A0E0B0E0809313019093140115
:1002A000A0931501B0931601089583B399279695ED
:1002B00087959C012170307080FF03C08FEF90E024
:1002C0000895C9010895089505D9DDD48CE291E01F
:1002D00098D1D6D8CDD8D7D48CE291E092D10895D8
:1002E000DDD80895FDDF8CE291E08BD1ACDFECDF4F
:1002F0000895C09884EF91E084D1C09A84EF91E092
:1003000080D1089584E68093190147DF84E18093CA
:10031000190181E075DF089584E68093190122DFD9
:1003200084E18093190181E074DF0895CF93ADD902
:1003300066E070E0D8D990916000C82FC65F913018
:1003400061F484E68093190128DF84E18093190128
:100350008C2F56DF109260000CC084E68093190148
:1003600001DF84E1809319018C2F53DF81E08093BA
:100370006000CF910895CF93DF93CDB7DEB722977A
:100380000FB6F894DEBF0FBECDBFCE01019688D860
:10039000029711F0AEDF83C029813A8128323105FE
:1003A00071F48091130190911401A0911501B09105
:1003B00016018897A105B10511F045DF19C0442742
:1003C00037FD4095542F8091130190911401A09115
:1003D0001501B0911601281B390B4A0B5B0B121645
:1003E00013061406150614F48DDF02C057FD94DFC2
:1003F00089819A819C01442737FD4095542F209391
:10040000130130931401409315015093160120916C
:100410001701309118018217930781F065D8209158
:10042000760030917700280F391F309377002093A2
:10043000760050D8109279001092780089819A81C4
:1004400090931801809317014FD8099734F4809145
:10045000760090917700CD9758F068DF43DF1092D7
:1004600079001092780036D81092770010927600BA
:100470003BD804974CF080917900882381F456DFB3
:100480008FEF809379000BC02FD8069744F08091AE
:100490007800882321F44ADF8FEF8093780022963A
:1004A0000FB6F894DEBF0FBECDBFDF91CF91089598
:1004B00084E1809319012DD8C6DE84E690E0A1D0B6
:1004C00003DF59DFFECFCFE5D4E0DEBFCDBFDDDDFA
:1004D000EFDF86E090E08FC9039665E070E003D916
:1004E000CB01AA27BB2723E0880F991FAA1FBB1F98
:1004F0002A95D1F7009711F00197FCCF0895873026
:1005000040F4E82FFF27EE0FFF1FE458FF4F108243
:1005100011820895089593B7987F982B93BF0895FB
:1005200010921E0110921F011092200110922101C1
:10053000089582E0F0DF12BE89B7816089BFF0DFE5
:1005400008959EB5987F982B9EBD089583E0F9DFAE
:100550001DBC1CBC89B7846089BF089595B5987F80
:10056000982B95BD089510922601109227011092A4
:10057000280110922901089584E0F0DF14BC89B7A6
:10058000806489BFF0DF0895CF93C0E08C2FB7DF80
:10059000CF5FC730D8F3CDDFD9DFEEDF7894CF91CE
:1005A000089583B7E82FFF27E770F070EE0FFF1F65
:1005B000EA5CFF4F8591949108958EB5E82FFF274F
:1005C000E770F070EE0FFF1FEA5CFF4F859194918A
:1005D000089585B5E82FFF27E770F070EE0FFF1F35
:1005E000EA5DFF4F859194910895873040F4E82F9C
:1005F000FF27EE0FFF1FE458FF4F608371830895BC
:100600000895DF92EF92FF920F931F93CF93DF93A2
:10061000EC01D2B610922201109223011092240113
:1006200010922501BEDF9C014427552760E072E14E
:100630008AE790E08ED8293B8DE8380786E04807A6
:1006400080E05807B0F487E2C131D80790F4CE01BA
:10065000AA27BB27BC01CD0127D8DC01CB01BC01F7
:10066000CD0128EE33E040E050E051D8FA01E90135
:100670000FC07E0100271127CA01B90128EE33E01F
:1006800040E050E044D8C801B7010ED8FC01EB01AE
:100690008091220190912301A0912401B091250124
:1006A0002227382F492F5A2F82B79927AA27BB27ED
:1006B000282B392B4A2B5B2BCD0DD11DE11DF11DB4
:1006C0002C173D074E075F0758F580912201909146
:1006D0002301A0912401B091250185B78F7885BFB2
:1006E00085B7806885BF889585B78F7785BF8091EE
:1006F000220190912301A0912401B0912501BA2FEC
:10070000A92F982F882722B7332744275527822BD4
:10071000932BA42BB52B8C179D07AE07BF07A8F210
:10072000DF91CF911F910F91FF90EF90DF9008958F
:100730001DBC1CBC08952CB58DB59927982F882712
:10074000820F911DAA27BB27BC01CD0128EE33E003
:1007500040E050E0A9D7DC01CB01BC01CD0124E889
:100760003EE140E050E0D3D7DA01C901089580911D
:100770001E0190911F01A0912001B0912101BC01A7
:10078000CD0108958091260190912701A091280123
:10079000B0912901BC01CD010895893031F48FB5A4
:1007A00082608FBD8FB58E7F0AC08A3019F48FB5F5
:1007B000826002C08FB58D7F8FBD8FB581608FBD88
:1007C0001BBC1ABC19BC18BC08959C018FB58E7F48
:1007D0008FBD8FB582608FBD8EB588608EBD8EB5A2
:1007E00080618EBD37BD26BD1BBC1ABC19BC18BCB0
:1007F00008958FB58F778FBD8FB58F7B8FBD08958F
:100800008FB58F7D8FBD8FB58F7E8FBD08958FB5CE
:100810008D7F8FBD8FB58E7F8FBDEBDFF1DF0895AC
:100820008FB580688FBD8FB58F7B8FBD08958FB5D5
:1008300080628FBD8FB58F7E8FBD08959BBD8ABDB1
:10084000089599BD88BD08951F920F920FB60F921B
:1008500011242F933F934F935F936F937F938F93C5
:100860009F93AF93BF93EF93FF9380911E0190915D
:100870001F01A0912001B09121010196A11DB11D80
:1008800080931E0190931F01A0932001B09321013A
:100890008091220190912301A0912401B091250122
:1008A0000196A11DB11D8093220190932301A09375
:1008B0002401B093250180917C0090917D00892BCB
:1008C00029F0E0917C00F0917D000995FF91EF9176
:1008D000BF91AF919F918F917F916F915F914F9158
:1008E0003F912F910F900FBE0F901F9018951F9260
:1008F0000F920FB60F9211242F933F934F935F9354
:100900006F937F938F939F93AF93BF93EF93FF93D7
:1009100080917E0090917F00892B29F0E0917E00EC
:10092000F0917F000995FF91EF91BF91AF919F9159
:100930008F917F916F915F914F913F912F910F9088
:100940000FBE0F901F9018951F920F920FB60F9227
:1009500011242F933F934F935F936F937F938F93C4
:100960009F93AF93BF93EF93FF9380912601909154
:100970002701A0912801B09129010196A11DB11D67
:100980008093260190932701A0932801B093290119
:100990008091860090918700892B29F0E091860054
:1009A000F09187000995FF91EF91BF91AF919F91D1
:1009B0008F917F916F915F914F913F912F910F9008
:1009C0000FBE0F901F9018951F920F920FB60F92A7
:1009D00011242F933F934F935F936F937F938F9344
:1009E0009F93AF93BF93EF93FF938091800090917B
:1009F0008100892B29F0E0918000F0918100099518
:100A0000FF91EF91BF91AF919F918F917F916F91E6
:100A10005F914F913F912F910F900FBE0F901F90BC
:100A200018951F920F920FB60F9211242F933F9398
:100A30004F935F936F937F938F939F93AF93BF93E6
:100A4000EF93FF938091820090918300892B29F08E
:100A5000E0918200F09183000995FF91EF91BF91A1
:100A6000AF919F918F917F916F915F914F913F9146
:100A70002F910F900FBE0F901F9018951F920F92FD
:100A80000FB60F9211242F933F934F935F936F9361
:100A90007F938F939F93AF93BF93EF93FF93809137
:100AA000840090918500892B29F0E0918400F091D9
:100AB00085000995FF91EF91BF91AF919F918F9123
:100AC0007F916F915F914F913F912F910F900FBE4A
:100AD0000F901F9018951F920F920FB60F9211242E
:100AE0002F933F934F935F936F937F938F939F9336
:100AF000AF93BF93EF93FF9380918800909189000B
:100B0000892B29F0E0918800F09189000995FF91E7
:100B1000EF91BF91AF919F918F917F916F915F9175
:100B20004F913F912F910F900FBE0F901F901895EE
:100B3000DC01CB0173E0880F991FAA1FBB1F7A95B8
:100B4000D1F79C01AD01220F331F441F551F805068
:100B50009E4EA548BF4FBC01CD01D9D5DA01C901D0
:100B6000019789B9892F992780BD089540E450E005
:100B70006AE870E08BE291E019D140E450E06AEC61
:100B800070E084E391E012D10895F0DF10920B0140
:100B900010920A0188ED8AB960E875E280E090E081
:100BA000C7DF8FEF80932A011092330110923D012D
:100BB00010923C017894089590930B0180930A0160
:100BC00008958BE291E0089584E391E00895982FD1
:100BD00080912A018823E1F39CB910922A0108959B
:100BE000CF93DF93EC0180912D0190912E0100971E
:100BF00061F080912F0190913001009731F08BE2EC
:100C000091E0DED088838FEF90E0DF91CF9108955F
:100C1000CF93DF93CDB7DEB721970FB6F894DEBF41
:100C20000FBECDBFCE010196DBDF882319F089818D
:100C3000992702C08FEF9FEF21960FB6F894DEBF81
:100C40000FBECDBFDF91CF910895EF92FF920F932A
:100C50001F93CF93DF937B0100E010E0EC01D8DF1E
:100C600089930F5F1F4F0E151F0521F08A91219662
:100C70008D30A9F71882C801DF91CF911F910F9194
:100C8000FF90EF9008951092300110922F01089577
:100C900080912F0190913001892B19F48FEF90E012
:100CA000089580E090E008950895682F84E391E02E
:100CB000DDD008958FEF8093330184E391E080D0FD
:100CC00086DF08951F920F920FB60F9211242F9373
:100CD0003F934F935F936F937F938F939F93AF93C4
:100CE000BF93EF93FF9380913301882369F0809144
:100CF000380190913901892B29F084E391E060D08B
:100D00008CB905C0109233018FEF80932A01FF91B7
:100D1000EF91BF91AF919F918F917F916F915F9173
:100D20004F913F912F910F900FBE0F901F901895EC
:100D30001F920F920FB60F9211242F933F934F9350
:100D40005F936F937F938F939F93AF93BF93EF9333
:100D5000FF936CB180910A0190910B01892B39F0BE
:100D6000E0910A01F0910B01862F09950EC08BE2EC
:100D700091E07CD0882349F480913C0190913D0121
:100D8000019690933D0180933C01FF91EF91BF91BB
:100D9000AF919F918F917F916F915F914F913F9113
:100DA0002F910F900FBE0F901F901895FC0160833C
:100DB00071834283538316821782148215820895A9
:100DC000CF93DF93EC01E0E02C813D8121153105CB
:100DD000B1F08E819F81E881F981E80FF91FE081F0
:100DE00001968E839F836A817B818617970718F00F
:100DF0007AD48E839F83215030402C833D838E2F65
:100E00009927DF91CF910895CF93DF93FC01EB01F8
:100E1000248135816217730798F486819781860F44
:100E2000971F86839783628173818617970718F0CF
:100E30005AD4868397832C1B3D0B2483358302C0B1
:100E400014821582DF91CF910895FC0186819781EC
:100E500022813381860F971FB90145D40190F0811B
:100E6000E02DE80FF91F808199270895CF93DF9334
:100E7000EC01462F2C813D816A817B812617370743
:100E800090F48E819F81820F931F2DD4E881F98188
:100E9000E80FF91F40838C819D8101968C839D838F
:100EA0008FEF90E002C080E090E0DF91CF91089555
:100EB000FC0140E050E02481358182819381281734
:100EC000390710F441E050E0CA010895FC01148292
:100ED0001582089590930D0180930C010895E0917F
:100EE0000C01F0910D0109950895CF93DF93EC016A
:100EF000892B61F08881882349F0E0910C01F09101
:100F00000D018991099588818823B9F7DF91CF91E7
:100F10000895EF92FF920F931F93CF93DF93EC010D
:100F20007A0120E030E0892B01F1C9012F5F3F4FAA
:100F30008617970718F489918823B9F720E030E0E5
:100F40002E153F0590F4888189010F5F1F4FE091B6
:100F50000C01F0910D01882311F0219601C080E26F
:100F6000099598010E151F0570F3DF91CF911F9120
:100F70000F91FF90EF900895CF93DF93EC010097CE
:100F800079F0FC0121968491882351F0E0910C01C5
:100F9000F0910D010995FE01219684918823B1F706
:100FA000DF91CF910895E0910C01F0910D018DE05A
:100FB0000995E0910C01F0910D018AE009950895E1
:100FC000E82FFF27EF70F070EE5BFF4F8491E09108
:100FD0000C01F0910D01099508951F93182F82952A
:100FE0008F70EEDF812FECDF1F9108950F931F9319
:100FF0008C01812F9927F1DF802FEFDF1F910F9157
:101000000895EF92FF920F931F937B018C01C8010B
:10101000AA27BB27EBDFC701E9DF1F910F91FF90E4
:10102000EF9008952F923F924F925F926F927F922E
:101030008F929F92AF92BF92CF92DF92EF92FF92E8
:101040000F931F93CF93DF93CDB7DEB7A2970FB661
:10105000F894DEBF0FBECDBF69A3C42E2AA327011B
:101060003801442351F017FF08C0EE24FF24870104
:10107000E418F5080609170902C08301720199A155
:10108000692F772761507040CC2011F0615070407B
:10109000D62E18A22FE1222E312C2C0E3D1E882E8A
:1010A0009924AA24BB24C801B701A50194012FD318
:1010B000DC01CB01FC01EE5BFF4F84918F8FC801F7
:1010C000B701A501940123D379018A01DA94AFEF26
:1010D000DA1629F1DA94C1010197E114F10401054E
:1010E0001105B1F01C01C801B701A50194010FD38E
:1010F000DC01CB01FC01EE5BFF4F8491F1018083A9
:10110000C801B701A501940102D379018A0104C085
:101110001C01EAA1DC01EC93FFEFDF16D9F6CC202D
:10112000B9F077FE05C08DE2D1018E931D0110C08C
:10113000C101019714141504160417042CF41C01A2
:101140008BE2F101808304C01C0180E2D1018C9309
:10115000D9A0DA94BFEFDB1661F0E0910C01F091B9
:101160000D01D1018D911D010995DA94BFEFDB16B8
:10117000A1F7A2960FB6F894DEBF0FBECDBFDF91E8
:10118000CF911F910F91FF90EF90DF90CF90BF9084
:10119000AF909F908F907F906F905F904F903F9017
:1011A0002F9008957F928F929F92AF92BF92CF928D
:1011B000DF92EF92FF920F931F93CF93DF93CDB700
:1011C000DEB77888C988DA8863E1A62EB12CAC0E28
:1011D000BD1E08C0882309F47BC0E0910C01F0918A
:1011E0000D01099596012F5F3F4F772021F0F60101
:1011F0006901849103C0F60180816901853251F74C
:101200002F5F3F4F772021F0F6016901849103C0E1
:10121000F60180816901282F33272436310591F0AA
:101220002536310524F42336310529F0D6CF283769
:10123000310581F0D2CFF50122E030E0A20EB31EDD
:101240008081CBCF5AE0852E912C40E1E42E47E2FD
:10125000F42E04C030E1E32EF12C4701F50122E029
:1012600030E0A20EB31E008111818436D1F417FF45
:1012700009C0109501951F4FE0910C01F0910D01EF
:101280008DE2099532E0E316F10458F00E151F05C2
:1012900040F4C7016AE070E026D27B01623071053C
:1012A000A8F7C801B7011FD2FB01EE5BFF4F849185
:1012B000E0910C01F0910D010995C801B70113D21D
:1012C0008C01C701B4010FD27B01672B51F78ACF84
:1012D00080E090E0DF91CF911F910F91FF90EF9010
:1012E000DF90CF90BF90AF909F908F907F900895A8
:1012F00010920E010895CF93DF93EC01188288DCE1
:101300009C01982F8F3F19F485E690E020C08091D2
:101310000E01E82FFF27E25CFE4F20838F5F809352
:101320000E0188818F5F8883E0910E019D3049F422
:10133000FF27E25CFE4F108210920E0184E690E0DF
:1013400006C0EF33E1F610927D0186E690E0DF9172
:10135000CF910895F0D920910F0130911001280FFD
:10136000391F3093100120930F0181E6293A380785
:1013700090F0C90168EE73E0B6D1809111019091AF
:101380001201860F971F9093120180931101109202
:10139000100110920F0108950895CF93DF93DC019F
:1013A00090E08C918A3309F491E0E92FFF27EF0157
:1013B000CA0FDB1F8881813419F480E090E012C0ED
:1013C0008E3431F48981833419F481E090E00AC0CD
:1013D000EA0FFB1F80818E3419F482E090E002C096
:1013E00088EC90E0DF91CF910895EF92FF920F93F8
:1013F0001F93CF93DF93CDB7DEB721970FB6F89445
:10140000DEBF0FBECDBF74DFA5DF92D994D97C01BA
:101410000FC0CE0101966FDF8C018436910529F44F
:101420008EE391E0BADF8C010AC08636910539F06F
:1014300082D997012C503E4F8217930750F30536FF
:10144000110511F407E610E0C80121960FB6F894D3
:10145000DEBF0FBECDBFDF91CF911F910F91FF90E7
:10146000EF90089542DD84EF91E0CBD8BEDF089580
:1014700082E690E0F7DF89E690E0F4DF99270895AF
:101480000F931F938DE690E0EDDF8C018CE291E0ED
:10149000B8D8F9DBC8011F910F910895F1DF0895C5
:1014A0000F931F93CF93DF938C018AE992E0F801A9
:1014B000808391839ADFEC01029731F480E491E01C
:1014C0005ED0F80180839183CE01DF91CF911F918F
:1014D0000F910895109212011092110110921001B3
:1014E00010920F0125D9089580910F01909110015C
:1014F00068EE73E0F8D08091110190911201860F8F
:10150000971F0895019711F43D9808953D9A089505
:10151000089537980895369A089521E030E086B10D
:10152000992744E0969587954A95E1F781709070E8
:1015300082179307A1F734980895EDDFEEDF3D9B06
:1015400003C085B19927089524B185B19927982FB3
:101550008827820F911D08950895379A87B18F7358
:1015600087B981E090E0CEDFE8DF0895982F8830DA
:1015700020F487B1807F892B87B908950895FC01F5
:1015800088279927E89421912223E9F02032D9F382
:101590002930C9F32A30B9F32C30A9F32D3099F34F
:1015A000263789F32B3219F02D3221F468942191DA
:1015B000222349F020333CF02A332CF420530BD063
:1015C000820F911DF4CF8115910521F01EF48095B5
:1015D0009095019608957AE0979F902D879F802D92
:1015E000910D11240895A0E0B0E0E8EFFAE0D4C036
:1015F000EC01E880F9800A811B81C801B7012DE167
:1016000033EF41E050E083D059016A01C801B701CE
:101610002DE133EF41E050E07AD0DC01CB01BC0199
:10162000CD0127EA31E440E050E03ED07B018C015F
:10163000C601B50124E13BE040E050E035D0DC01DB
:10164000CB01E81AF90A0A0B1B0B1E141F04100623
:10165000110644F08FEF9FEFAFEFBFE7E80EF91EE2
:101660000A1F1B1FE882F9820A831B838FEF9FE703
:10167000A0E0B0E0E822F9220A231B23C701EAE038
:10168000CDB7DEB7A5C0AFDF089581E790E0ABDF4F
:101690000895AA27BB278093710090937200A093AE
:1016A0007300B09374000895629FD001739FF0019E
:1016B000829FE00DF11D649FE00DF11D929FF00DE2
:1016C000839FF00D749FF00D659FF00D9927729F19
:1016D000B00DE11DF91F639FB00DE11DF91FBD01A4
:1016E000CF0111240895AA1BBB1B51E107C0AA1FFB
:1016F000BB1FA617B70710F0A61BB70B881F991FB3
:101700005A95A9F780959095BC01CD010895A1E265
:101710001A2EAA1BBB1BFD010DC0AA1FBB1FEE1F6B
:10172000FF1FA217B307E407F50720F0A21BB30BB6
:10173000E40BF50B661F771F881F991F1A9469F732
:1017400060957095809590959B01AC01BD01CF018E
:10175000089597FB092E05260ED057FD04D0D7DF3C
:101760000AD0001C38F450954095309521953F4F94
:101770004F4F5F4F0895F6F790958095709561955E
:101780007F4F8F4F9F4F08952F923F924F925F92BE
:101790006F927F928F929F92AF92BF92CF92DF9281
:1017A000EF92FF920F931F93CF93DF93CDB7DEB7E6
:1017B000CA1BDB0B0FB6F894DEBF0FBECDBF09947A
:1017C0002A88398848885F846E847D848C849B84D1
:1017D000AA84B984C884DF80EE80FD800C811B81DF
:1017E000AA81B981CE0FD11D0FB6F894DEBF0FBE0E
:0817F000CDBFED010895FFCF0C
:1017F80001FF4D4D2031300D0054570D0052530D4F
:06180800000100000000D9
:00000001FF
